{
  "contractName": "BlockClockSvgNft",
  "abi": [
    {
      "inputs": [
        {
          "internalType": "contract IERC20",
          "name": "_token",
          "type": "address"
        }
      ],
      "stateMutability": "nonpayable",
      "type": "constructor"
    },
    {
      "anonymous": false,
      "inputs": [
        {
          "indexed": true,
          "internalType": "address",
          "name": "owner",
          "type": "address"
        },
        {
          "indexed": true,
          "internalType": "address",
          "name": "approved",
          "type": "address"
        },
        {
          "indexed": true,
          "internalType": "uint256",
          "name": "tokenId",
          "type": "uint256"
        }
      ],
      "name": "Approval",
      "type": "event"
    },
    {
      "anonymous": false,
      "inputs": [
        {
          "indexed": true,
          "internalType": "address",
          "name": "owner",
          "type": "address"
        },
        {
          "indexed": true,
          "internalType": "address",
          "name": "operator",
          "type": "address"
        },
        {
          "indexed": false,
          "internalType": "bool",
          "name": "approved",
          "type": "bool"
        }
      ],
      "name": "ApprovalForAll",
      "type": "event"
    },
    {
      "anonymous": false,
      "inputs": [
        {
          "indexed": false,
          "internalType": "uint256",
          "name": "_tokenId",
          "type": "uint256"
        },
        {
          "indexed": false,
          "internalType": "bytes3",
          "name": "_bitcoinLeafColour",
          "type": "bytes3"
        },
        {
          "indexed": false,
          "internalType": "bytes3",
          "name": "_rskLeafColour",
          "type": "bytes3"
        }
      ],
      "name": "TokenInfo",
      "type": "event"
    },
    {
      "anonymous": false,
      "inputs": [
        {
          "indexed": true,
          "internalType": "address",
          "name": "from",
          "type": "address"
        },
        {
          "indexed": true,
          "internalType": "address",
          "name": "to",
          "type": "address"
        },
        {
          "indexed": true,
          "internalType": "uint256",
          "name": "tokenId",
          "type": "uint256"
        }
      ],
      "name": "Transfer",
      "type": "event"
    },
    {
      "inputs": [
        {
          "internalType": "address",
          "name": "to",
          "type": "address"
        },
        {
          "internalType": "uint256",
          "name": "tokenId",
          "type": "uint256"
        }
      ],
      "name": "approve",
      "outputs": [],
      "stateMutability": "nonpayable",
      "type": "function"
    },
    {
      "inputs": [
        {
          "internalType": "address",
          "name": "owner",
          "type": "address"
        }
      ],
      "name": "balanceOf",
      "outputs": [
        {
          "internalType": "uint256",
          "name": "",
          "type": "uint256"
        }
      ],
      "stateMutability": "view",
      "type": "function",
      "constant": true
    },
    {
      "inputs": [
        {
          "internalType": "uint256",
          "name": "tokenId",
          "type": "uint256"
        }
      ],
      "name": "getApproved",
      "outputs": [
        {
          "internalType": "address",
          "name": "",
          "type": "address"
        }
      ],
      "stateMutability": "view",
      "type": "function",
      "constant": true
    },
    {
      "inputs": [
        {
          "internalType": "address",
          "name": "owner",
          "type": "address"
        },
        {
          "internalType": "address",
          "name": "operator",
          "type": "address"
        }
      ],
      "name": "isApprovedForAll",
      "outputs": [
        {
          "internalType": "bool",
          "name": "",
          "type": "bool"
        }
      ],
      "stateMutability": "view",
      "type": "function",
      "constant": true
    },
    {
      "inputs": [],
      "name": "name",
      "outputs": [
        {
          "internalType": "string",
          "name": "",
          "type": "string"
        }
      ],
      "stateMutability": "view",
      "type": "function",
      "constant": true
    },
    {
      "inputs": [
        {
          "internalType": "uint256",
          "name": "tokenId",
          "type": "uint256"
        }
      ],
      "name": "ownerOf",
      "outputs": [
        {
          "internalType": "address",
          "name": "",
          "type": "address"
        }
      ],
      "stateMutability": "view",
      "type": "function",
      "constant": true
    },
    {
      "inputs": [
        {
          "internalType": "address",
          "name": "from",
          "type": "address"
        },
        {
          "internalType": "address",
          "name": "to",
          "type": "address"
        },
        {
          "internalType": "uint256",
          "name": "tokenId",
          "type": "uint256"
        }
      ],
      "name": "safeTransferFrom",
      "outputs": [],
      "stateMutability": "nonpayable",
      "type": "function"
    },
    {
      "inputs": [
        {
          "internalType": "address",
          "name": "from",
          "type": "address"
        },
        {
          "internalType": "address",
          "name": "to",
          "type": "address"
        },
        {
          "internalType": "uint256",
          "name": "tokenId",
          "type": "uint256"
        },
        {
          "internalType": "bytes",
          "name": "_data",
          "type": "bytes"
        }
      ],
      "name": "safeTransferFrom",
      "outputs": [],
      "stateMutability": "nonpayable",
      "type": "function"
    },
    {
      "inputs": [
        {
          "internalType": "address",
          "name": "operator",
          "type": "address"
        },
        {
          "internalType": "bool",
          "name": "approved",
          "type": "bool"
        }
      ],
      "name": "setApprovalForAll",
      "outputs": [],
      "stateMutability": "nonpayable",
      "type": "function"
    },
    {
      "inputs": [],
      "name": "symbol",
      "outputs": [
        {
          "internalType": "string",
          "name": "",
          "type": "string"
        }
      ],
      "stateMutability": "view",
      "type": "function",
      "constant": true
    },
    {
      "inputs": [
        {
          "internalType": "uint256",
          "name": "tokenId",
          "type": "uint256"
        }
      ],
      "name": "tokenURI",
      "outputs": [
        {
          "internalType": "string",
          "name": "",
          "type": "string"
        }
      ],
      "stateMutability": "view",
      "type": "function",
      "constant": true
    },
    {
      "inputs": [
        {
          "internalType": "address",
          "name": "from",
          "type": "address"
        },
        {
          "internalType": "address",
          "name": "to",
          "type": "address"
        },
        {
          "internalType": "uint256",
          "name": "tokenId",
          "type": "uint256"
        }
      ],
      "name": "transferFrom",
      "outputs": [],
      "stateMutability": "nonpayable",
      "type": "function"
    },
    {
      "inputs": [
        {
          "internalType": "bytes4",
          "name": "interfaceId",
          "type": "bytes4"
        }
      ],
      "name": "supportsInterface",
      "outputs": [
        {
          "internalType": "bool",
          "name": "",
          "type": "bool"
        }
      ],
      "stateMutability": "view",
      "type": "function",
      "constant": true
    },
    {
      "inputs": [
        {
          "internalType": "uint256",
          "name": "_amount",
          "type": "uint256"
        },
        {
          "internalType": "uint256",
          "name": "_nftId",
          "type": "uint256"
        }
      ],
      "name": "transferLunas",
      "outputs": [],
      "stateMutability": "nonpayable",
      "type": "function"
    },
    {
      "inputs": [
        {
          "internalType": "uint256",
          "name": "_nftId",
          "type": "uint256"
        }
      ],
      "name": "getNftData",
      "outputs": [
        {
          "internalType": "bool",
          "name": "exists",
          "type": "bool"
        },
        {
          "internalType": "bytes3",
          "name": "bitcoinLeafColour",
          "type": "bytes3"
        },
        {
          "internalType": "bytes3",
          "name": "rskLeafColour",
          "type": "bytes3"
        },
        {
          "internalType": "uint256",
          "name": "lunasBalance",
          "type": "uint256"
        },
        {
          "internalType": "address",
          "name": "owner",
          "type": "address"
        }
      ],
      "stateMutability": "view",
      "type": "function",
      "constant": true
    },
    {
      "inputs": [
        {
          "internalType": "uint256",
          "name": "_nftId",
          "type": "uint256"
        },
        {
          "internalType": "bytes3",
          "name": "_bitcoinLeafColour",
          "type": "bytes3"
        },
        {
          "internalType": "bytes3",
          "name": "_rskLeafColour",
          "type": "bytes3"
        }
      ],
      "name": "payLunasForColoursChange",
      "outputs": [],
      "stateMutability": "nonpayable",
      "type": "function"
    },
    {
      "inputs": [
        {
          "internalType": "bytes3",
          "name": "bitcoinLeafColour",
          "type": "bytes3"
        },
        {
          "internalType": "bytes3",
          "name": "rskLeafColour",
          "type": "bytes3"
        }
      ],
      "name": "create",
      "outputs": [],
      "stateMutability": "nonpayable",
      "type": "function"
    },
    {
      "inputs": [
        {
          "internalType": "uint256",
          "name": "_tokenId",
          "type": "uint256"
        }
      ],
      "name": "renderSvgLogo",
      "outputs": [
        {
          "internalType": "string",
          "name": "",
          "type": "string"
        }
      ],
      "stateMutability": "view",
      "type": "function",
      "constant": true
    },
    {
      "inputs": [],
      "name": "getRskBtcBlockNumbers",
      "outputs": [
        {
          "internalType": "uint256",
          "name": "",
          "type": "uint256"
        },
        {
          "internalType": "uint256",
          "name": "",
          "type": "uint256"
        }
      ],
      "stateMutability": "view",
      "type": "function",
      "constant": true
    }
  ],
  "bytecode": "0x60806040523480156200001157600080fd5b5060405162003e7938038062003e798339818101604052810190620000379190620001ee565b6040518060400160405280601181526020017f54657374426c6f636b436c6f636b4e66740000000000000000000000000000008152506040518060400160405280600881526020017f5465737442434c4b0000000000000000000000000000000000000000000000008152508160009080519060200190620000bb92919062000127565b508060019080519060200190620000d492919062000127565b505050600060078190555080600660006101000a81548173ffffffffffffffffffffffffffffffffffffffff021916908373ffffffffffffffffffffffffffffffffffffffff16021790555050620002ec565b828054620001359062000268565b90600052602060002090601f016020900481019282620001595760008555620001a5565b82601f106200017457805160ff1916838001178555620001a5565b82800160010185558215620001a5579182015b82811115620001a457825182559160200191906001019062000187565b5b509050620001b49190620001b8565b5090565b5b80821115620001d3576000816000905550600101620001b9565b5090565b600081519050620001e881620002d2565b92915050565b600060208284031215620002075762000206620002cd565b5b60006200021784828501620001d7565b91505092915050565b60006200022d8262000248565b9050919050565b6000620002418262000220565b9050919050565b600073ffffffffffffffffffffffffffffffffffffffff82169050919050565b600060028204905060018216806200028157607f821691505b602082108114156200029857620002976200029e565b5b50919050565b7f4e487b7100000000000000000000000000000000000000000000000000000000600052602260045260246000fd5b600080fd5b620002dd8162000234565b8114620002e957600080fd5b50565b613b7d80620002fc6000396000f3fe608060405234801561001057600080fd5b50600436106101215760003560e01c806370a08231116100ad578063b88d4fde11610071578063b88d4fde1461031d578063c6c0bcd814610339578063c87b56dd14610355578063d370cdce14610385578063e985e9c5146103b557610121565b806370a082311461026357806395d89b4114610293578063a22cb465146102b1578063a802d82b146102cd578063ad3515ee1461030157610121565b80632053df59116100f45780632053df59146101c057806323b872dd146101dc5780632e384109146101f857806342842e0e146102175780636352211e1461023357610121565b806301ffc9a71461012657806306fdde0314610156578063081812fc14610174578063095ea7b3146101a4575b600080fd5b610140600480360381019061013b9190612594565b6103e5565b60405161014d9190612b4e565b60405180910390f35b61015e61045f565b60405161016b9190612bbc565b60405180910390f35b61018e6004803603810190610189919061261b565b6104f1565b60405161019b9190612ab0565b60405180910390f35b6101be60048036038101906101b991906124e7565b610576565b005b6101da60048036038101906101d59190612554565b61068e565b005b6101f660048036038101906101f191906123d1565b610845565b005b6102006108a5565b60405161020e929190612e50565b60405180910390f35b610231600480360381019061022c91906123d1565b610942565b005b61024d6004803603810190610248919061261b565b610962565b60405161025a9190612ab0565b60405180910390f35b61027d60048036038101906102789190612364565b610a14565b60405161028a9190612dfe565b60405180910390f35b61029b610acc565b6040516102a89190612bbc565b60405180910390f35b6102cb60048036038101906102c691906124a7565b610b5e565b005b6102e760048036038101906102e2919061261b565b610cdf565b6040516102f8959493929190612b69565b60405180910390f35b61031b6004803603810190610316919061269b565b610d71565b005b61033760048036038101906103329190612424565b610eb9565b005b610353600480360381019061034e9190612648565b610f1b565b005b61036f600480360381019061036a919061261b565b6110d6565b60405161037c9190612bbc565b60405180910390f35b61039f600480360381019061039a919061261b565b61117d565b6040516103ac9190612bbc565b60405180910390f35b6103cf60048036038101906103ca9190612391565b6111fb565b6040516103dc9190612b4e565b60405180910390f35b60007f1eec2283000000000000000000000000000000000000000000000000000000007bffffffffffffffffffffffffffffffffffffffffffffffffffffffff1916827bffffffffffffffffffffffffffffffffffffffffffffffffffffffff1916148061045857506104578261128f565b5b9050919050565b60606000805461046e90613157565b80601f016020809104026020016040519081016040528092919081815260200182805461049a90613157565b80156104e75780601f106104bc576101008083540402835291602001916104e7565b820191906000526020600020905b8154815290600101906020018083116104ca57829003601f168201915b5050505050905090565b60006104fc82611371565b61053b576040517f08c379a000000000000000000000000000000000000000000000000000000000815260040161053290612d3e565b60405180910390fd5b6004600083815260200190815260200160002060009054906101000a900473ffffffffffffffffffffffffffffffffffffffff169050919050565b600061058182610962565b90508073ffffffffffffffffffffffffffffffffffffffff168373ffffffffffffffffffffffffffffffffffffffff1614156105f2576040517f08c379a00000000000000000000000000000000000000000000000000000000081526004016105e990612d9e565b60405180910390fd5b8073ffffffffffffffffffffffffffffffffffffffff166106116113dd565b73ffffffffffffffffffffffffffffffffffffffff161480610640575061063f8161063a6113dd565b6111fb565b5b61067f576040517f08c379a000000000000000000000000000000000000000000000000000000000815260040161067690612cbe565b60405180910390fd5b61068983836113e5565b505050565b600060076000815461069f906131ba565b919050819055905060006040518060a00160405280600115158152602001857cffffffffffffffffffffffffffffffffffffffffffffffffffffffffff19168152602001847cffffffffffffffffffffffffffffffffffffffffffffffffffffffffff19168152602001600081526020013373ffffffffffffffffffffffffffffffffffffffff168152509050806008600084815260200190815260200160002060008201518160000160006101000a81548160ff02191690831515021790555060208201518160000160016101000a81548162ffffff021916908360e81c021790555060408201518160000160046101000a81548162ffffff021916908360e81c02179055506060820151816001015560808201518160020160006101000a81548173ffffffffffffffffffffffffffffffffffffffff021916908373ffffffffffffffffffffffffffffffffffffffff160217905550905050610804338361149e565b7ffe029a5c3475c2652ec17369d803d2a7989bf81f22ea8dbdfd7b89f470b4baa382858560405161083793929190612e19565b60405180910390a150505050565b6108566108506113dd565b826114bc565b610895576040517f08c379a000000000000000000000000000000000000000000000000000000000815260040161088c90612dbe565b60405180910390fd5b6108a083838361159a565b505050565b600080600043905060006108b76117f6565b73ffffffffffffffffffffffffffffffffffffffff166314c89c016040518163ffffffff1660e01b815260040160206040518083038186803b1580156108fc57600080fd5b505afa158015610910573d6000803e3d6000fd5b505050506040513d601f19601f8201168201806040525081019061093491906125ee565b905080829350935050509091565b61095d83838360405180602001604052806000815250610eb9565b505050565b6000806002600084815260200190815260200160002060009054906101000a900473ffffffffffffffffffffffffffffffffffffffff169050600073ffffffffffffffffffffffffffffffffffffffff168173ffffffffffffffffffffffffffffffffffffffff161415610a0b576040517f08c379a0000000000000000000000000000000000000000000000000000000008152600401610a0290612cfe565b60405180910390fd5b80915050919050565b60008073ffffffffffffffffffffffffffffffffffffffff168273ffffffffffffffffffffffffffffffffffffffff161415610a85576040517f08c379a0000000000000000000000000000000000000000000000000000000008152600401610a7c90612cde565b60405180910390fd5b600360008373ffffffffffffffffffffffffffffffffffffffff1673ffffffffffffffffffffffffffffffffffffffff168152602001908152602001600020549050919050565b606060018054610adb90613157565b80601f0160208091040260200160405190810160405280929190818152602001828054610b0790613157565b8015610b545780601f10610b2957610100808354040283529160200191610b54565b820191906000526020600020905b815481529060010190602001808311610b3757829003601f168201915b5050505050905090565b610b666113dd565b73ffffffffffffffffffffffffffffffffffffffff168273ffffffffffffffffffffffffffffffffffffffff161415610bd4576040517f08c379a0000000000000000000000000000000000000000000000000000000008152600401610bcb90612c3e565b60405180910390fd5b8060056000610be16113dd565b73ffffffffffffffffffffffffffffffffffffffff1673ffffffffffffffffffffffffffffffffffffffff16815260200190815260200160002060008473ffffffffffffffffffffffffffffffffffffffff1673ffffffffffffffffffffffffffffffffffffffff16815260200190815260200160002060006101000a81548160ff0219169083151502179055508173ffffffffffffffffffffffffffffffffffffffff16610c8e6113dd565b73ffffffffffffffffffffffffffffffffffffffff167f17307eab39ab6107e8899845ad3d59bd9653f200f220920489ca2b5937696c3183604051610cd39190612b4e565b60405180910390a35050565b6000806000806000806008600088815260200190815260200160002090508060000160009054906101000a900460ff168160000160019054906101000a900460e81b8260000160049054906101000a900460e81b83600101548460020160009054906101000a900473ffffffffffffffffffffffffffffffffffffffff16955095509550955095505091939590929450565b806008600082815260200190815260200160002060000160009054906101000a900460ff16610dd5576040517f08c379a0000000000000000000000000000000000000000000000000000000008152600401610dcc90612dde565b60405180910390fd5b600660009054906101000a900473ffffffffffffffffffffffffffffffffffffffff1673ffffffffffffffffffffffffffffffffffffffff166323b872dd3330866040518463ffffffff1660e01b8152600401610e3493929190612acb565b602060405180830381600087803b158015610e4e57600080fd5b505af1158015610e62573d6000803e3d6000fd5b505050506040513d601f19601f82011682018060405250810190610e869190612527565b5082600860008481526020019081526020016000206001016000828254610ead9190612f12565b92505081905550505050565b610eca610ec46113dd565b836114bc565b610f09576040517f08c379a0000000000000000000000000000000000000000000000000000000008152600401610f0090612dbe565b60405180910390fd5b610f1584848484611802565b50505050565b826008600082815260200190815260200160002060000160009054906101000a900460ff16610f7f576040517f08c379a0000000000000000000000000000000000000000000000000000000008152600401610f7690612dde565b60405180910390fd5b60006064905060006008600087815260200190815260200160002090503373ffffffffffffffffffffffffffffffffffffffff168160020160009054906101000a900473ffffffffffffffffffffffffffffffffffffffff1673ffffffffffffffffffffffffffffffffffffffff161461102e576040517f08c379a000000000000000000000000000000000000000000000000000000000815260040161102590612c5e565b60405180910390fd5b8181600101541015611075576040517f08c379a000000000000000000000000000000000000000000000000000000000815260040161106c90612c9e565b60405180910390fd5b848160000160016101000a81548162ffffff021916908360e81c0217905550838160000160046101000a81548162ffffff021916908360e81c0217905550818160010160008282546110c7919061302a565b92505081905550505050505050565b60606110e182611371565b611120576040517f08c379a000000000000000000000000000000000000000000000000000000000815260040161111790612d7e565b60405180910390fd5b600061112a61185e565b9050600081511161114a5760405180602001604052806000815250611175565b8061115484611875565b604051602001611165929190612a0d565b6040516020818303038152906040525b915050919050565b606060006008600084815260200190815260200160002060000160019054906101000a900460e81b905060006008600085815260200190815260200160002060000160049054906101000a900460e81b90506000806111da6108a5565b9150915060006111ec838387876119d6565b90508095505050505050919050565b6000600560008473ffffffffffffffffffffffffffffffffffffffff1673ffffffffffffffffffffffffffffffffffffffff16815260200190815260200160002060008373ffffffffffffffffffffffffffffffffffffffff1673ffffffffffffffffffffffffffffffffffffffff16815260200190815260200160002060009054906101000a900460ff16905092915050565b60007f80ac58cd000000000000000000000000000000000000000000000000000000007bffffffffffffffffffffffffffffffffffffffffffffffffffffffff1916827bffffffffffffffffffffffffffffffffffffffffffffffffffffffff1916148061135a57507f5b5e139f000000000000000000000000000000000000000000000000000000007bffffffffffffffffffffffffffffffffffffffffffffffffffffffff1916827bffffffffffffffffffffffffffffffffffffffffffffffffffffffff1916145b8061136a575061136982611af7565b5b9050919050565b60008073ffffffffffffffffffffffffffffffffffffffff166002600084815260200190815260200160002060009054906101000a900473ffffffffffffffffffffffffffffffffffffffff1673ffffffffffffffffffffffffffffffffffffffff1614159050919050565b600033905090565b816004600083815260200190815260200160002060006101000a81548173ffffffffffffffffffffffffffffffffffffffff021916908373ffffffffffffffffffffffffffffffffffffffff160217905550808273ffffffffffffffffffffffffffffffffffffffff1661145883610962565b73ffffffffffffffffffffffffffffffffffffffff167f8c5be1e5ebec7d5bd14f71427d1e84f3dd0314c0f7b2291e5b200ac8c7c3b92560405160405180910390a45050565b6114b8828260405180602001604052806000815250611b61565b5050565b60006114c782611371565b611506576040517f08c379a00000000000000000000000000000000000000000000000000000000081526004016114fd90612c7e565b60405180910390fd5b600061151183610962565b90508073ffffffffffffffffffffffffffffffffffffffff168473ffffffffffffffffffffffffffffffffffffffff16148061158057508373ffffffffffffffffffffffffffffffffffffffff16611568846104f1565b73ffffffffffffffffffffffffffffffffffffffff16145b80611591575061159081856111fb565b5b91505092915050565b8273ffffffffffffffffffffffffffffffffffffffff166115ba82610962565b73ffffffffffffffffffffffffffffffffffffffff1614611610576040517f08c379a000000000000000000000000000000000000000000000000000000000815260040161160790612d5e565b60405180910390fd5b600073ffffffffffffffffffffffffffffffffffffffff168273ffffffffffffffffffffffffffffffffffffffff161415611680576040517f08c379a000000000000000000000000000000000000000000000000000000000815260040161167790612c1e565b60405180910390fd5b61168b838383611bbc565b6116966000826113e5565b6001600360008573ffffffffffffffffffffffffffffffffffffffff1673ffffffffffffffffffffffffffffffffffffffff16815260200190815260200160002060008282546116e6919061302a565b925050819055506001600360008473ffffffffffffffffffffffffffffffffffffffff1673ffffffffffffffffffffffffffffffffffffffff168152602001908152602001600020600082825461173d9190612f12565b92505081905550816002600083815260200190815260200160002060006101000a81548173ffffffffffffffffffffffffffffffffffffffff021916908373ffffffffffffffffffffffffffffffffffffffff160217905550808273ffffffffffffffffffffffffffffffffffffffff168473ffffffffffffffffffffffffffffffffffffffff167fddf252ad1be2c89b69c2b068fc378daa952ba7f163c4a11628f55a4df523b3ef60405160405180910390a4505050565b60006301000006905090565b61180d84848461159a565b61181984848484611bc1565b611858576040517f08c379a000000000000000000000000000000000000000000000000000000000815260040161184f90612bde565b60405180910390fd5b50505050565b606060405180602001604052806000815250905090565b606060008214156118bd576040518060400160405280600181526020017f300000000000000000000000000000000000000000000000000000000000000081525090506119d1565b600082905060005b600082146118ef5780806118d8906131ba565b915050600a826118e89190612f9f565b91506118c5565b60008167ffffffffffffffff81111561190b5761190a6132f0565b5b6040519080825280601f01601f19166020018201604052801561193d5781602001600182028036833780820191505090505b5090505b600085146119ca57600182611956919061302a565b9150600a856119659190613203565b60306119719190612f12565b60f81b818381518110611987576119866132c1565b5b60200101907effffffffffffffffffffffffffffffffffffffffffffffffffffffffffffff1916908160001a905350600a856119c39190612f9f565b9450611941565b8093505050505b919050565b60606000604051806102c0016040528061029381526020016138766102939139905060006040518060400160405280601081526020017f2c20302c203029222066696c6c3d222300000000000000000000000000000000815250905060006040518060600160405280603f8152602001613b09603f9139905060006040518060400160405280601181526020017f222f3e3c2f673e3c2f673e3c2f7376673e000000000000000000000000000000815250905083611a9b611a968b611d58565b611d86565b84611aa58a611f0f565b85611ab7611ab28e611f2a565b611d86565b88611ac18d611f0f565b88604051602001611ada99989796959493929190612a31565b604051602081830303815290604052945050505050949350505050565b60007f01ffc9a7000000000000000000000000000000000000000000000000000000007bffffffffffffffffffffffffffffffffffffffffffffffffffffffff1916827bffffffffffffffffffffffffffffffffffffffffffffffffffffffff1916149050919050565b611b6b8383611f58565b611b786000848484611bc1565b611bb7576040517f08c379a0000000000000000000000000000000000000000000000000000000008152600401611bae90612bde565b60405180910390fd5b505050565b505050565b6000611be28473ffffffffffffffffffffffffffffffffffffffff16612126565b15611d4b578373ffffffffffffffffffffffffffffffffffffffff1663150b7a02611c0b6113dd565b8786866040518563ffffffff1660e01b8152600401611c2d9493929190612b02565b602060405180830381600087803b158015611c4757600080fd5b505af1925050508015611c7857506040513d601f19601f82011682018060405250810190611c7591906125c1565b60015b611cfb573d8060008114611ca8576040519150601f19603f3d011682016040523d82523d6000602084013e611cad565b606091505b50600081511415611cf3576040517f08c379a0000000000000000000000000000000000000000000000000000000008152600401611cea90612bde565b60405180910390fd5b805181602001fd5b63150b7a0260e01b7bffffffffffffffffffffffffffffffffffffffffffffffffffffffff1916817bffffffffffffffffffffffffffffffffffffffffffffffffffffffff191614915050611d50565b600190505b949350505050565b6000605a603c600684611d6b9190613203565b611d759190612fd0565b611d7f9190612f12565b9050919050565b60606000821415611dce576040518060400160405280600181526020017f30000000000000000000000000000000000000000000000000000000000000008152509050611f0a565b600082905060005b60008214611e00578080611de9906131ba565b915050600a82611df99190612f9f565b9150611dd6565b60008167ffffffffffffffff811115611e1c57611e1b6132f0565b5b6040519080825280601f01601f191660200182016040528015611e4e5781602001600182028036833780820191505090505b50905060008290505b60008614611f0257600181611e6c919061302a565b90506000600a8088611e7e9190612f9f565b611e889190612fd0565b87611e93919061302a565b6030611e9f9190612f68565b905060008160f81b905080848481518110611ebd57611ebc6132c1565b5b60200101907effffffffffffffffffffffffffffffffffffffffffffffffffffffffffffff1916908160001a905350600a88611ef99190612f9f565b97505050611e57565b819450505050505b919050565b606060008260e81c9050611f2281612139565b915050919050565b6000605a6012601484611f3d9190613203565b611f479190612fd0565b611f519190612f12565b9050919050565b600073ffffffffffffffffffffffffffffffffffffffff168273ffffffffffffffffffffffffffffffffffffffff161415611fc8576040517f08c379a0000000000000000000000000000000000000000000000000000000008152600401611fbf90612d1e565b60405180910390fd5b611fd181611371565b15612011576040517f08c379a000000000000000000000000000000000000000000000000000000000815260040161200890612bfe565b60405180910390fd5b61201d60008383611bbc565b6001600360008473ffffffffffffffffffffffffffffffffffffffff1673ffffffffffffffffffffffffffffffffffffffff168152602001908152602001600020600082825461206d9190612f12565b92505081905550816002600083815260200190815260200160002060006101000a81548173ffffffffffffffffffffffffffffffffffffffff021916908373ffffffffffffffffffffffffffffffffffffffff160217905550808273ffffffffffffffffffffffffffffffffffffffff16600073ffffffffffffffffffffffffffffffffffffffff167fddf252ad1be2c89b69c2b068fc378daa952ba7f163c4a11628f55a4df523b3ef60405160405180910390a45050565b600080823b905060008111915050919050565b60606000600667ffffffffffffffff811115612158576121576132f0565b5b6040519080825280601f01601f19166020018201604052801561218a5781602001600182028036833780820191505090505b5090506000600f90506000600690505b6001816121a7919061302a565b90506121b4828616612218565b60f81b8382815181106121ca576121c96132c1565b5b60200101907effffffffffffffffffffffffffffffffffffffffffffffffffffffffffffff1916908160001a90535060048562ffffff16901c94506000811161219a57829350505050919050565b600060098260ff1611612237576030826122329190612f68565b612245565b6057826122449190612f68565b5b9050919050565b600061225f61225a84612e9e565b612e79565b90508281526020810184848401111561227b5761227a613324565b5b612286848285613115565b509392505050565b60008135905061229d816137eb565b92915050565b6000813590506122b281613802565b92915050565b6000815190506122c781613802565b92915050565b6000813590506122dc81613819565b92915050565b6000813590506122f181613830565b92915050565b60008151905061230681613830565b92915050565b600082601f8301126123215761232061331f565b5b813561233184826020860161224c565b91505092915050565b60008151905061234981613847565b92915050565b60008135905061235e8161385e565b92915050565b60006020828403121561237a5761237961332e565b5b60006123888482850161228e565b91505092915050565b600080604083850312156123a8576123a761332e565b5b60006123b68582860161228e565b92505060206123c78582860161228e565b9150509250929050565b6000806000606084860312156123ea576123e961332e565b5b60006123f88682870161228e565b93505060206124098682870161228e565b925050604061241a8682870161234f565b9150509250925092565b6000806000806080858703121561243e5761243d61332e565b5b600061244c8782880161228e565b945050602061245d8782880161228e565b935050604061246e8782880161234f565b925050606085013567ffffffffffffffff81111561248f5761248e613329565b5b61249b8782880161230c565b91505092959194509250565b600080604083850312156124be576124bd61332e565b5b60006124cc8582860161228e565b92505060206124dd858286016122a3565b9150509250929050565b600080604083850312156124fe576124fd61332e565b5b600061250c8582860161228e565b925050602061251d8582860161234f565b9150509250929050565b60006020828403121561253d5761253c61332e565b5b600061254b848285016122b8565b91505092915050565b6000806040838503121561256b5761256a61332e565b5b6000612579858286016122cd565b925050602061258a858286016122cd565b9150509250929050565b6000602082840312156125aa576125a961332e565b5b60006125b8848285016122e2565b91505092915050565b6000602082840312156125d7576125d661332e565b5b60006125e5848285016122f7565b91505092915050565b6000602082840312156126045761260361332e565b5b60006126128482850161233a565b91505092915050565b6000602082840312156126315761263061332e565b5b600061263f8482850161234f565b91505092915050565b6000806000606084860312156126615761266061332e565b5b600061266f8682870161234f565b9350506020612680868287016122cd565b9250506040612691868287016122cd565b9150509250925092565b600080604083850312156126b2576126b161332e565b5b60006126c08582860161234f565b92505060206126d18582860161234f565b9150509250929050565b6126e48161305e565b82525050565b6126f381613070565b82525050565b6127028161307c565b82525050565b600061271382612ecf565b61271d8185612ee5565b935061272d818560208601613124565b61273681613333565b840191505092915050565b600061274c82612eda565b6127568185612ef6565b9350612766818560208601613124565b61276f81613333565b840191505092915050565b600061278582612eda565b61278f8185612f07565b935061279f818560208601613124565b80840191505092915050565b60006127b8603283612ef6565b91506127c382613344565b604082019050919050565b60006127db601c83612ef6565b91506127e682613393565b602082019050919050565b60006127fe602483612ef6565b9150612809826133bc565b604082019050919050565b6000612821601983612ef6565b915061282c8261340b565b602082019050919050565b6000612844602083612ef6565b915061284f82613434565b602082019050919050565b6000612867602c83612ef6565b91506128728261345d565b604082019050919050565b600061288a602b83612ef6565b9150612895826134ac565b604082019050919050565b60006128ad603883612ef6565b91506128b8826134fb565b604082019050919050565b60006128d0602a83612ef6565b91506128db8261354a565b604082019050919050565b60006128f3602983612ef6565b91506128fe82613599565b604082019050919050565b6000612916602083612ef6565b9150612921826135e8565b602082019050919050565b6000612939602c83612ef6565b915061294482613611565b604082019050919050565b600061295c602983612ef6565b915061296782613660565b604082019050919050565b600061297f602f83612ef6565b915061298a826136af565b604082019050919050565b60006129a2602183612ef6565b91506129ad826136fe565b604082019050919050565b60006129c5603183612ef6565b91506129d08261374d565b604082019050919050565b60006129e8602283612ef6565b91506129f38261379c565b604082019050919050565b612a07816130fe565b82525050565b6000612a19828561277a565b9150612a25828461277a565b91508190509392505050565b6000612a3d828c61277a565b9150612a49828b61277a565b9150612a55828a61277a565b9150612a61828961277a565b9150612a6d828861277a565b9150612a79828761277a565b9150612a85828661277a565b9150612a91828561277a565b9150612a9d828461277a565b91508190509a9950505050505050505050565b6000602082019050612ac560008301846126db565b92915050565b6000606082019050612ae060008301866126db565b612aed60208301856126db565b612afa60408301846129fe565b949350505050565b6000608082019050612b1760008301876126db565b612b2460208301866126db565b612b3160408301856129fe565b8181036060830152612b438184612708565b905095945050505050565b6000602082019050612b6360008301846126ea565b92915050565b600060a082019050612b7e60008301886126ea565b612b8b60208301876126f9565b612b9860408301866126f9565b612ba560608301856129fe565b612bb260808301846126db565b9695505050505050565b60006020820190508181036000830152612bd68184612741565b905092915050565b60006020820190508181036000830152612bf7816127ab565b9050919050565b60006020820190508181036000830152612c17816127ce565b9050919050565b60006020820190508181036000830152612c37816127f1565b9050919050565b60006020820190508181036000830152612c5781612814565b9050919050565b60006020820190508181036000830152612c7781612837565b9050919050565b60006020820190508181036000830152612c978161285a565b9050919050565b60006020820190508181036000830152612cb78161287d565b9050919050565b60006020820190508181036000830152612cd7816128a0565b9050919050565b60006020820190508181036000830152612cf7816128c3565b9050919050565b60006020820190508181036000830152612d17816128e6565b9050919050565b60006020820190508181036000830152612d3781612909565b9050919050565b60006020820190508181036000830152612d578161292c565b9050919050565b60006020820190508181036000830152612d778161294f565b9050919050565b60006020820190508181036000830152612d9781612972565b9050919050565b60006020820190508181036000830152612db781612995565b9050919050565b60006020820190508181036000830152612dd7816129b8565b9050919050565b60006020820190508181036000830152612df7816129db565b9050919050565b6000602082019050612e1360008301846129fe565b92915050565b6000606082019050612e2e60008301866129fe565b612e3b60208301856126f9565b612e4860408301846126f9565b949350505050565b6000604082019050612e6560008301856129fe565b612e7260208301846129fe565b9392505050565b6000612e83612e94565b9050612e8f8282613189565b919050565b6000604051905090565b600067ffffffffffffffff821115612eb957612eb86132f0565b5b612ec282613333565b9050602081019050919050565b600081519050919050565b600081519050919050565b600082825260208201905092915050565b600082825260208201905092915050565b600081905092915050565b6000612f1d826130fe565b9150612f28836130fe565b9250827fffffffffffffffffffffffffffffffffffffffffffffffffffffffffffffffff03821115612f5d57612f5c613234565b5b828201905092915050565b6000612f7382613108565b9150612f7e83613108565b92508260ff03821115612f9457612f93613234565b5b828201905092915050565b6000612faa826130fe565b9150612fb5836130fe565b925082612fc557612fc4613263565b5b828204905092915050565b6000612fdb826130fe565b9150612fe6836130fe565b9250817fffffffffffffffffffffffffffffffffffffffffffffffffffffffffffffffff048311821515161561301f5761301e613234565b5b828202905092915050565b6000613035826130fe565b9150613040836130fe565b92508282101561305357613052613234565b5b828203905092915050565b6000613069826130de565b9050919050565b60008115159050919050565b60007fffffff000000000000000000000000000000000000000000000000000000000082169050919050565b60007fffffffff0000000000000000000000000000000000000000000000000000000082169050919050565b6000819050919050565b600073ffffffffffffffffffffffffffffffffffffffff82169050919050565b6000819050919050565b600060ff82169050919050565b82818337600083830152505050565b60005b83811015613142578082015181840152602081019050613127565b83811115613151576000848401525b50505050565b6000600282049050600182168061316f57607f821691505b6020821081141561318357613182613292565b5b50919050565b61319282613333565b810181811067ffffffffffffffff821117156131b1576131b06132f0565b5b80604052505050565b60006131c5826130fe565b91507fffffffffffffffffffffffffffffffffffffffffffffffffffffffffffffffff8214156131f8576131f7613234565b5b600182019050919050565b600061320e826130fe565b9150613219836130fe565b92508261322957613228613263565b5b828206905092915050565b7f4e487b7100000000000000000000000000000000000000000000000000000000600052601160045260246000fd5b7f4e487b7100000000000000000000000000000000000000000000000000000000600052601260045260246000fd5b7f4e487b7100000000000000000000000000000000000000000000000000000000600052602260045260246000fd5b7f4e487b7100000000000000000000000000000000000000000000000000000000600052603260045260246000fd5b7f4e487b7100000000000000000000000000000000000000000000000000000000600052604160045260246000fd5b600080fd5b600080fd5b600080fd5b600080fd5b6000601f19601f8301169050919050565b7f4552433732313a207472616e7366657220746f206e6f6e20455243373231526560008201527f63656976657220696d706c656d656e7465720000000000000000000000000000602082015250565b7f4552433732313a20746f6b656e20616c7265616479206d696e74656400000000600082015250565b7f4552433732313a207472616e7366657220746f20746865207a65726f2061646460008201527f7265737300000000000000000000000000000000000000000000000000000000602082015250565b7f4552433732313a20617070726f766520746f2063616c6c657200000000000000600082015250565b7f596f7520617265206e6f7420746865206f776e6572206f6620746865204e4654600082015250565b7f4552433732313a206f70657261746f7220717565727920666f72206e6f6e657860008201527f697374656e7420746f6b656e0000000000000000000000000000000000000000602082015250565b7f4e6f7420656e6f756768204c554e20746f6b656e7320746f206368616e67652060008201527f74686520636f6c6f757273000000000000000000000000000000000000000000602082015250565b7f4552433732313a20617070726f76652063616c6c6572206973206e6f74206f7760008201527f6e6572206e6f7220617070726f76656420666f7220616c6c0000000000000000602082015250565b7f4552433732313a2062616c616e636520717565727920666f7220746865207a6560008201527f726f206164647265737300000000000000000000000000000000000000000000602082015250565b7f4552433732313a206f776e657220717565727920666f72206e6f6e657869737460008201527f656e7420746f6b656e0000000000000000000000000000000000000000000000602082015250565b7f4552433732313a206d696e7420746f20746865207a65726f2061646472657373600082015250565b7f4552433732313a20617070726f76656420717565727920666f72206e6f6e657860008201527f697374656e7420746f6b656e0000000000000000000000000000000000000000602082015250565b7f4552433732313a207472616e73666572206f6620746f6b656e2074686174206960008201527f73206e6f74206f776e0000000000000000000000000000000000000000000000602082015250565b7f4552433732314d657461646174613a2055524920717565727920666f72206e6f60008201527f6e6578697374656e7420746f6b656e0000000000000000000000000000000000602082015250565b7f4552433732313a20617070726f76616c20746f2063757272656e74206f776e6560008201527f7200000000000000000000000000000000000000000000000000000000000000602082015250565b7f4552433732313a207472616e736665722063616c6c6572206973206e6f74206f60008201527f776e6572206e6f7220617070726f766564000000000000000000000000000000602082015250565b7f596f752063616e206e6f742070617920666f7220756e6578697374696e67204e60008201527f4654000000000000000000000000000000000000000000000000000000000000602082015250565b6137f48161305e565b81146137ff57600080fd5b50565b61380b81613070565b811461381657600080fd5b50565b6138228161307c565b811461382d57600080fd5b50565b613839816130a8565b811461384457600080fd5b50565b613850816130d4565b811461385b57600080fd5b50565b613867816130fe565b811461387257600080fd5b5056fe3c7376672077696474683d2236343022206865696768743d2236343022207374726f6b653d222330303022207374726f6b652d77696474683d223130222066696c6c3d2223666666222076657273696f6e3d22312e312220786d6c6e733d22687474703a2f2f7777772e77332e6f72672f323030302f737667223e3c67207472616e73666f726d3d227472616e736c617465283332302c33323029223e3c706f6c79676f6e20706f696e74733d2230202d3133342c313230202d36302c3132302036302c30203133342c2d3132302036302c2d313230202d3630222f3e3c6c696e652078313d2230222079313d222d313334222078323d2230222079323d22313334222f3e3c6c696e652078313d22313230222079313d222d3630222078323d222d313230222079323d223630222f3e3c6c696e652078313d22313230222079313d223630222078323d222d313230222079323d222d3630222f3e3c636972636c652063783d2230222063793d222d3133342220723d223235222f3e3c636972636c652063783d22313230222063793d222d36302220723d223235222f3e3c636972636c652063783d22313230222063793d2236302220723d223235222f3e3c636972636c652063783d2230222063793d223133342220723d223235222f3e3c636972636c65202063783d222d313230222063793d2236302220723d223235222f3e3c636972636c652063783d222d313230222063793d222d36302220723d223235222f3e3c636972636c652063783d2230222063793d22302220723d223235222f3e3c67207374726f6b652d77696474683d2236223e3c656c6c697073652063783d222d323239222063793d2230222072783d223630222072793d22333222207472616e73666f726d3d22726f7461746528222f3e3c656c6c697073652063783d222d323039222063793d2230222072783d223430222072793d22323122207472616e73666f726d3d22726f7461746528a2646970667358221220944a55dbe58d3d13ad45b07a0379a70d793a4c5379e2f123d0c388949e2551a764736f6c63430008070033",
  "immutableReferences": {},
  "source": "// SPDX-License-Identifier: GPL-3.0\npragma solidity >=0.7.0 <0.9.0;\nimport { IBlockClockSvgNft } from './IBlockClockSvgNft.sol';\nimport { Bridge } from './Bridge.sol';\nimport { ERC721 } from \"@openzeppelin/contracts/token/ERC721/ERC721.sol\";\nimport { IERC20 } from \"@openzeppelin/contracts/token/ERC20/IERC20.sol\";\nimport { ERC165 } from \"@openzeppelin/contracts/utils/introspection/ERC165.sol\";\nimport { IERC165 } from \"@openzeppelin/contracts/utils/introspection/IERC165.sol\";\n\ncontract BlockClockSvgNft is\n    IBlockClockSvgNft,\n    ERC165,\n    ERC721\n{\n    IERC20 private lunaToken;\n    struct TokenData {\n        bool exists;\n        bytes3 bitcoinLeafColour;\n        bytes3 rskLeafColour;\n        uint lunasBalance;\n        address owner;\n    }\n\n    uint256 tokenCount;\n    // Mapping from token ID to token data\n    mapping(uint256 => TokenData) private tokens;\n\n    event TokenInfo(uint256 _tokenId, bytes3 _bitcoinLeafColour, bytes3 _rskLeafColour);\n\n    // set tokens that can be received (LunaTokens)\n    constructor(IERC20 _token)\n        ERC721(\"TestBlockClockNft\", \"TestBCLK\")\n    {\n        tokenCount = 0;\n        lunaToken = _token;\n    }\n\n    modifier nftExists(uint _nftId) {\n      require(tokens[_nftId].exists, 'You can not pay for unexisting NFT');\n      _;\n    }\n\n    function supportsInterface(bytes4 interfaceId) public view override (ERC721, ERC165, IERC165) returns (bool) {\n        return\n            interfaceId == type(IBlockClockSvgNft).interfaceId ||\n            super.supportsInterface(interfaceId);\n    }\n\n    function transferLunas(uint _amount, uint _nftId) public override nftExists(_nftId) {\n      lunaToken.transferFrom(msg.sender, address(this), _amount);\n      tokens[_nftId].lunasBalance += _amount; \n    }\n\n\n    function getNftData(uint _nftId) public override view returns (\n      bool exists,\n      bytes3 bitcoinLeafColour,\n      bytes3 rskLeafColour,\n      uint lunasBalance,\n      address owner\n    ) {\n      TokenData storage nft = tokens[_nftId];\n      return (\n        nft.exists,\n        nft.bitcoinLeafColour,\n        nft.rskLeafColour,\n        nft.lunasBalance,\n        nft.owner\n      );\n    }\n\n    function payLunasForColoursChange(uint _nftId, bytes3 _bitcoinLeafColour, bytes3 _rskLeafColour) public override nftExists(_nftId) {\n      uint colourChangePrice = 100; // Luna tokens\n      TokenData storage nft = tokens[_nftId];\n      require(nft.owner == msg.sender, 'You are not the owner of the NFT');\n      require(nft.lunasBalance >= colourChangePrice, 'Not enough LUN tokens to change the colours');\n      nft.bitcoinLeafColour = _bitcoinLeafColour;\n      nft.rskLeafColour = _rskLeafColour;\n      nft.lunasBalance -= colourChangePrice;\n    }\n\n    function create(\n        bytes3 bitcoinLeafColour,\n        bytes3 rskLeafColour\n    )\n        public override\n    {\n        uint256 tokenId = ++tokenCount;\n        TokenData memory newToken = TokenData(\n            true,\n            bitcoinLeafColour,\n            rskLeafColour,\n            0,\n            msg.sender\n        );\n        tokens[tokenId] = newToken;\n        _safeMint(msg.sender, tokenId);\n        emit TokenInfo(tokenId, bitcoinLeafColour, rskLeafColour);\n    }\n\n    function renderSvgLogo(uint256 _tokenId) public view override returns(string memory) {\n        bytes3 bitcoinLeafColour = tokens[_tokenId].bitcoinLeafColour;\n        bytes3 rskLeafColour = tokens[_tokenId].rskLeafColour;\n        (uint256 btcBlockNum, uint256 rskBlockNum) = getRskBtcBlockNumbers();\n        string memory svgLogo = getRenderedSvgLogo(btcBlockNum, rskBlockNum, bitcoinLeafColour, rskLeafColour);\n        return svgLogo;\n    }\n\n    function getRskBtcBlockNumbers() public view override returns(uint256, uint256) {\n        uint256 rskBlockNumber = block.number;\n        uint256 bestChainHeight = uint256(getBridge().getBtcBlockchainBestChainHeight());\n        return (bestChainHeight, rskBlockNumber);\n    }\n\n    function getRenderedSvgLogo(\n      uint256 _btcBlockNum,\n      uint256 _rskBlockNum,\n      bytes3 _bitcoinLeafColour,\n      bytes3 _rskLeafColour\n    ) private pure returns(string memory) {\n        string memory header = '<svg width=\"640\" height=\"640\" stroke=\"#000\" stroke-width=\"10\" fill=\"#fff\" version=\"1.1\" xmlns=\"http://www.w3.org/2000/svg\"><g transform=\"translate(320,320)\"><polygon points=\"0 -134,120 -60,120 60,0 134,-120 60,-120 -60\"/><line x1=\"0\" y1=\"-134\" x2=\"0\" y2=\"134\"/><line x1=\"120\" y1=\"-60\" x2=\"-120\" y2=\"60\"/><line x1=\"120\" y1=\"60\" x2=\"-120\" y2=\"-60\"/><circle cx=\"0\" cy=\"-134\" r=\"25\"/><circle cx=\"120\" cy=\"-60\" r=\"25\"/><circle cx=\"120\" cy=\"60\" r=\"25\"/><circle cx=\"0\" cy=\"134\" r=\"25\"/><circle  cx=\"-120\" cy=\"60\" r=\"25\"/><circle cx=\"-120\" cy=\"-60\" r=\"25\"/><circle cx=\"0\" cy=\"0\" r=\"25\"/><g stroke-width=\"6\"><ellipse cx=\"-229\" cy=\"0\" rx=\"60\" ry=\"32\" transform=\"rotate(';\n        string memory fill = ', 0, 0)\" fill=\"#';\n        string memory ellipse = '\"/><ellipse cx=\"-209\" cy=\"0\" rx=\"40\" ry=\"21\" transform=\"rotate(';\n        string memory footer = '\"/></g></g></svg>';\n        return string(abi.encodePacked(\n            header,\n            uint2str(getHourHandAngle(_btcBlockNum)),\n            fill,\n            bytes3ToHexStr(_bitcoinLeafColour),\n            ellipse,\n            uint2str(getMinuteHandAngle(_rskBlockNum)),\n            fill,\n            bytes3ToHexStr(_rskLeafColour),\n            footer\n        ));\n    }\n\n    function getBridge() private pure returns (Bridge) {\n        return Bridge(address(0x01000006));\n    }\n\n    function uint8ToHexCharCode(uint8 i) private pure returns (uint8) {\n        return (i > 9) ?\n            (i + 87) : // ascii a-f\n            (i + 48); // ascii 0-9\n    }\n\n    function uint24ToHexStr(uint24 i) private pure returns (string memory) {\n        bytes memory o = new bytes(6);\n        uint24 mask = 0x00000f; // hex 15\n        uint k = 6;\n        do {\n          k -= 1;\n          o[k] = bytes1(uint8ToHexCharCode(uint8(i & mask)));\n          i >>= 4;\n        } while (k > 0);\n        return string(o);\n    }\n\n    function bytes3ToHexStr(bytes3 i) private pure returns (string memory) {\n      uint24 n = uint24(i);\n      return uint24ToHexStr(n);\n    }\n\n    // https://stackoverflow.com/questions/47129173/how-to-convert-uint-to-string-in-solidity\n    function uint2str(uint _i) private pure returns (string memory _uintAsString) {\n        if (_i == 0) {\n            return \"0\";\n        }\n        uint j = _i;\n        uint len;\n        while (j != 0) {\n            len++;\n            j /= 10;\n        }\n        bytes memory bstr = new bytes(len);\n        uint k = len;\n        while (_i != 0) {\n            k = k-1;\n            uint8 temp = (48 + uint8(_i - _i / 10 * 10));\n            bytes1 b1 = bytes1(temp);\n            bstr[k] = b1;\n            _i /= 10;\n        }\n        return string(bstr);\n    }\n\n    function getHourHandAngle(uint256 _value) private pure returns(uint256) {\n        return (_value % 6) * 60 + 90;\n    }\n\n    function getMinuteHandAngle(uint256 _value) private pure returns(uint256) {\n        return (_value % 20) * 18 + 90;\n    }\n}\n",
  "sourcePath": "/Users/shenshin/Projects/IOV/block-clock-svg-nft/contracts/BlockClockSvgNft.sol",
  "compiler": {
    "name": "solc",
    "version": "0.8.7+commit.e28d00a7.Emscripten.clang"
  },
  "schemaVersion": "3.4.3",
  "updatedAt": "2021-10-03T22:29:02.387Z",
  "networkType": "ethereum",
  "devdoc": {
    "kind": "dev",
    "methods": {
      "approve(address,uint256)": {
        "details": "See {IERC721-approve}."
      },
      "balanceOf(address)": {
        "details": "See {IERC721-balanceOf}."
      },
      "getApproved(uint256)": {
        "details": "See {IERC721-getApproved}."
      },
      "isApprovedForAll(address,address)": {
        "details": "See {IERC721-isApprovedForAll}."
      },
      "name()": {
        "details": "See {IERC721Metadata-name}."
      },
      "ownerOf(uint256)": {
        "details": "See {IERC721-ownerOf}."
      },
      "safeTransferFrom(address,address,uint256)": {
        "details": "See {IERC721-safeTransferFrom}."
      },
      "safeTransferFrom(address,address,uint256,bytes)": {
        "details": "See {IERC721-safeTransferFrom}."
      },
      "setApprovalForAll(address,bool)": {
        "details": "See {IERC721-setApprovalForAll}."
      },
      "symbol()": {
        "details": "See {IERC721Metadata-symbol}."
      },
      "tokenURI(uint256)": {
        "details": "See {IERC721Metadata-tokenURI}."
      },
      "transferFrom(address,address,uint256)": {
        "details": "See {IERC721-transferFrom}."
      }
    },
    "version": 1
  },
  "userdoc": {
    "kind": "user",
    "methods": {},
    "version": 1
  }
}