{
  "contractName": "BlockClockSvgNft",
  "abi": [
    {
      "inputs": [],
      "stateMutability": "nonpayable",
      "type": "constructor"
    },
    {
      "anonymous": false,
      "inputs": [
        {
          "indexed": true,
          "internalType": "address",
          "name": "owner",
          "type": "address"
        },
        {
          "indexed": true,
          "internalType": "address",
          "name": "approved",
          "type": "address"
        },
        {
          "indexed": true,
          "internalType": "uint256",
          "name": "tokenId",
          "type": "uint256"
        }
      ],
      "name": "Approval",
      "type": "event"
    },
    {
      "anonymous": false,
      "inputs": [
        {
          "indexed": true,
          "internalType": "address",
          "name": "owner",
          "type": "address"
        },
        {
          "indexed": true,
          "internalType": "address",
          "name": "operator",
          "type": "address"
        },
        {
          "indexed": false,
          "internalType": "bool",
          "name": "approved",
          "type": "bool"
        }
      ],
      "name": "ApprovalForAll",
      "type": "event"
    },
    {
      "anonymous": false,
      "inputs": [
        {
          "indexed": false,
          "internalType": "uint256",
          "name": "_tokenId",
          "type": "uint256"
        },
        {
          "indexed": false,
          "internalType": "string",
          "name": "_bitcoinLeafColour",
          "type": "string"
        },
        {
          "indexed": false,
          "internalType": "string",
          "name": "_rskLeafColour",
          "type": "string"
        }
      ],
      "name": "TokenInfo",
      "type": "event"
    },
    {
      "anonymous": false,
      "inputs": [
        {
          "indexed": true,
          "internalType": "address",
          "name": "from",
          "type": "address"
        },
        {
          "indexed": true,
          "internalType": "address",
          "name": "to",
          "type": "address"
        },
        {
          "indexed": true,
          "internalType": "uint256",
          "name": "tokenId",
          "type": "uint256"
        }
      ],
      "name": "Transfer",
      "type": "event"
    },
    {
      "inputs": [
        {
          "internalType": "address",
          "name": "to",
          "type": "address"
        },
        {
          "internalType": "uint256",
          "name": "tokenId",
          "type": "uint256"
        }
      ],
      "name": "approve",
      "outputs": [],
      "stateMutability": "nonpayable",
      "type": "function"
    },
    {
      "inputs": [
        {
          "internalType": "address",
          "name": "owner",
          "type": "address"
        }
      ],
      "name": "balanceOf",
      "outputs": [
        {
          "internalType": "uint256",
          "name": "",
          "type": "uint256"
        }
      ],
      "stateMutability": "view",
      "type": "function",
      "constant": true
    },
    {
      "inputs": [
        {
          "internalType": "uint256",
          "name": "tokenId",
          "type": "uint256"
        }
      ],
      "name": "getApproved",
      "outputs": [
        {
          "internalType": "address",
          "name": "",
          "type": "address"
        }
      ],
      "stateMutability": "view",
      "type": "function",
      "constant": true
    },
    {
      "inputs": [
        {
          "internalType": "address",
          "name": "owner",
          "type": "address"
        },
        {
          "internalType": "address",
          "name": "operator",
          "type": "address"
        }
      ],
      "name": "isApprovedForAll",
      "outputs": [
        {
          "internalType": "bool",
          "name": "",
          "type": "bool"
        }
      ],
      "stateMutability": "view",
      "type": "function",
      "constant": true
    },
    {
      "inputs": [],
      "name": "name",
      "outputs": [
        {
          "internalType": "string",
          "name": "",
          "type": "string"
        }
      ],
      "stateMutability": "view",
      "type": "function",
      "constant": true
    },
    {
      "inputs": [
        {
          "internalType": "uint256",
          "name": "tokenId",
          "type": "uint256"
        }
      ],
      "name": "ownerOf",
      "outputs": [
        {
          "internalType": "address",
          "name": "",
          "type": "address"
        }
      ],
      "stateMutability": "view",
      "type": "function",
      "constant": true
    },
    {
      "inputs": [
        {
          "internalType": "address",
          "name": "from",
          "type": "address"
        },
        {
          "internalType": "address",
          "name": "to",
          "type": "address"
        },
        {
          "internalType": "uint256",
          "name": "tokenId",
          "type": "uint256"
        }
      ],
      "name": "safeTransferFrom",
      "outputs": [],
      "stateMutability": "nonpayable",
      "type": "function"
    },
    {
      "inputs": [
        {
          "internalType": "address",
          "name": "from",
          "type": "address"
        },
        {
          "internalType": "address",
          "name": "to",
          "type": "address"
        },
        {
          "internalType": "uint256",
          "name": "tokenId",
          "type": "uint256"
        },
        {
          "internalType": "bytes",
          "name": "_data",
          "type": "bytes"
        }
      ],
      "name": "safeTransferFrom",
      "outputs": [],
      "stateMutability": "nonpayable",
      "type": "function"
    },
    {
      "inputs": [
        {
          "internalType": "address",
          "name": "operator",
          "type": "address"
        },
        {
          "internalType": "bool",
          "name": "approved",
          "type": "bool"
        }
      ],
      "name": "setApprovalForAll",
      "outputs": [],
      "stateMutability": "nonpayable",
      "type": "function"
    },
    {
      "inputs": [
        {
          "internalType": "bytes4",
          "name": "interfaceId",
          "type": "bytes4"
        }
      ],
      "name": "supportsInterface",
      "outputs": [
        {
          "internalType": "bool",
          "name": "",
          "type": "bool"
        }
      ],
      "stateMutability": "view",
      "type": "function",
      "constant": true
    },
    {
      "inputs": [],
      "name": "symbol",
      "outputs": [
        {
          "internalType": "string",
          "name": "",
          "type": "string"
        }
      ],
      "stateMutability": "view",
      "type": "function",
      "constant": true
    },
    {
      "inputs": [
        {
          "internalType": "uint256",
          "name": "tokenId",
          "type": "uint256"
        }
      ],
      "name": "tokenURI",
      "outputs": [
        {
          "internalType": "string",
          "name": "",
          "type": "string"
        }
      ],
      "stateMutability": "view",
      "type": "function",
      "constant": true
    },
    {
      "inputs": [
        {
          "internalType": "address",
          "name": "from",
          "type": "address"
        },
        {
          "internalType": "address",
          "name": "to",
          "type": "address"
        },
        {
          "internalType": "uint256",
          "name": "tokenId",
          "type": "uint256"
        }
      ],
      "name": "transferFrom",
      "outputs": [],
      "stateMutability": "nonpayable",
      "type": "function"
    },
    {
      "inputs": [
        {
          "internalType": "string",
          "name": "bitcoinLeafColour",
          "type": "string"
        },
        {
          "internalType": "string",
          "name": "rskLeafColour",
          "type": "string"
        }
      ],
      "name": "create",
      "outputs": [],
      "stateMutability": "nonpayable",
      "type": "function"
    },
    {
      "inputs": [
        {
          "internalType": "uint256",
          "name": "_tokenId",
          "type": "uint256"
        }
      ],
      "name": "renderSvgLogo",
      "outputs": [
        {
          "internalType": "string",
          "name": "",
          "type": "string"
        }
      ],
      "stateMutability": "view",
      "type": "function",
      "constant": true
    },
    {
      "inputs": [],
      "name": "getRskBtcBlockNumbers",
      "outputs": [
        {
          "internalType": "uint256",
          "name": "",
          "type": "uint256"
        },
        {
          "internalType": "uint256",
          "name": "",
          "type": "uint256"
        }
      ],
      "stateMutability": "view",
      "type": "function",
      "constant": true
    }
  ],
  "bytecode": "0x60806040523480156200001157600080fd5b506040518060400160405280601181526020017f54657374426c6f636b436c6f636b4e66740000000000000000000000000000008152506040518060400160405280600881526020017f5465737442434c4b000000000000000000000000000000000000000000000000815250816000908051906020019062000096929190620000c0565b508060019080519060200190620000af929190620000c0565b5050506000600681905550620001d5565b828054620000ce9062000170565b90600052602060002090601f016020900481019282620000f257600085556200013e565b82601f106200010d57805160ff19168380011785556200013e565b828001600101855582156200013e579182015b828111156200013d57825182559160200191906001019062000120565b5b5090506200014d919062000151565b5090565b5b808211156200016c57600081600090555060010162000152565b5090565b600060028204905060018216806200018957607f821691505b60208210811415620001a0576200019f620001a6565b5b50919050565b7f4e487b7100000000000000000000000000000000000000000000000000000000600052602260045260246000fd5b6133f080620001e56000396000f3fe608060405234801561001057600080fd5b50600436106101005760003560e01c80636352211e11610097578063b88d4fde11610066578063b88d4fde146102ac578063c87b56dd146102c8578063d370cdce146102f8578063e985e9c51461032857610100565b80636352211e1461021257806370a082311461024257806395d89b4114610272578063a22cb4651461029057610100565b8063198e2b8a116100d3578063198e2b8a1461019f57806323b872dd146101bb5780632e384109146101d757806342842e0e146101f657610100565b806301ffc9a71461010557806306fdde0314610135578063081812fc14610153578063095ea7b314610183575b600080fd5b61011f600480360381019061011a919061204f565b610358565b60405161012c919061253f565b60405180910390f35b61013d61043a565b60405161014a919061255a565b60405180910390f35b61016d6004803603810190610168919061214e565b6104cc565b60405161017a91906124d8565b60405180910390f35b61019d6004803603810190610198919061200f565b610551565b005b6101b960048036038101906101b491906120d6565b610669565b005b6101d560048036038101906101d09190611ef9565b610737565b005b6101df610797565b6040516101ed92919061279c565b60405180910390f35b610210600480360381019061020b9190611ef9565b610834565b005b61022c6004803603810190610227919061214e565b610854565b60405161023991906124d8565b60405180910390f35b61025c60048036038101906102579190611e8c565b610906565b604051610269919061273c565b60405180910390f35b61027a6109be565b604051610287919061255a565b60405180910390f35b6102aa60048036038101906102a59190611fcf565b610a50565b005b6102c660048036038101906102c19190611f4c565b610bd1565b005b6102e260048036038101906102dd919061214e565b610c33565b6040516102ef919061255a565b60405180910390f35b610312600480360381019061030d919061214e565b610cda565b60405161031f919061255a565b60405180910390f35b610342600480360381019061033d9190611eb9565b610e4e565b60405161034f919061253f565b60405180910390f35b60007f80ac58cd000000000000000000000000000000000000000000000000000000007bffffffffffffffffffffffffffffffffffffffffffffffffffffffff1916827bffffffffffffffffffffffffffffffffffffffffffffffffffffffff1916148061042357507f5b5e139f000000000000000000000000000000000000000000000000000000007bffffffffffffffffffffffffffffffffffffffffffffffffffffffff1916827bffffffffffffffffffffffffffffffffffffffffffffffffffffffff1916145b80610433575061043282610ee2565b5b9050919050565b60606000805461044990612aa8565b80601f016020809104026020016040519081016040528092919081815260200182805461047590612aa8565b80156104c25780601f10610497576101008083540402835291602001916104c2565b820191906000526020600020905b8154815290600101906020018083116104a557829003601f168201915b5050505050905090565b60006104d782610f4c565b610516576040517f08c379a000000000000000000000000000000000000000000000000000000000815260040161050d9061269c565b60405180910390fd5b6004600083815260200190815260200160002060009054906101000a900473ffffffffffffffffffffffffffffffffffffffff169050919050565b600061055c82610854565b90508073ffffffffffffffffffffffffffffffffffffffff168373ffffffffffffffffffffffffffffffffffffffff1614156105cd576040517f08c379a00000000000000000000000000000000000000000000000000000000081526004016105c4906126fc565b60405180910390fd5b8073ffffffffffffffffffffffffffffffffffffffff166105ec610fb8565b73ffffffffffffffffffffffffffffffffffffffff16148061061b575061061a81610615610fb8565b610e4e565b5b61065a576040517f08c379a00000000000000000000000000000000000000000000000000000000081526004016106519061261c565b60405180910390fd5b6106648383610fc0565b505050565b600060066000815461067a90612b0b565b919050819055905060006040518060400160405280858152602001848152509050806007600084815260200190815260200160002060008201518160000190805190602001906106cb929190611c8b565b5060208201518160010190805190602001906106e8929190611c8b565b509050506106f63383611079565b7f687d3ec578cdb8c947ff52a75741b8907a9b169f1120a00b82f29e8f6343769b82858560405161072993929190612757565b60405180910390a150505050565b610748610742610fb8565b82611097565b610787576040517f08c379a000000000000000000000000000000000000000000000000000000000815260040161077e9061271c565b60405180910390fd5b610792838383611175565b505050565b600080600043905060006107a96113d1565b73ffffffffffffffffffffffffffffffffffffffff166314c89c016040518163ffffffff1660e01b815260040160206040518083038186803b1580156107ee57600080fd5b505afa158015610802573d6000803e3d6000fd5b505050506040513d601f19601f8201168201806040525081019061082691906120a9565b905080829350935050509091565b61084f83838360405180602001604052806000815250610bd1565b505050565b6000806002600084815260200190815260200160002060009054906101000a900473ffffffffffffffffffffffffffffffffffffffff169050600073ffffffffffffffffffffffffffffffffffffffff168173ffffffffffffffffffffffffffffffffffffffff1614156108fd576040517f08c379a00000000000000000000000000000000000000000000000000000000081526004016108f49061265c565b60405180910390fd5b80915050919050565b60008073ffffffffffffffffffffffffffffffffffffffff168273ffffffffffffffffffffffffffffffffffffffff161415610977576040517f08c379a000000000000000000000000000000000000000000000000000000000815260040161096e9061263c565b60405180910390fd5b600360008373ffffffffffffffffffffffffffffffffffffffff1673ffffffffffffffffffffffffffffffffffffffff168152602001908152602001600020549050919050565b6060600180546109cd90612aa8565b80601f01602080910402602001604051908101604052809291908181526020018280546109f990612aa8565b8015610a465780601f10610a1b57610100808354040283529160200191610a46565b820191906000526020600020905b815481529060010190602001808311610a2957829003601f168201915b5050505050905090565b610a58610fb8565b73ffffffffffffffffffffffffffffffffffffffff168273ffffffffffffffffffffffffffffffffffffffff161415610ac6576040517f08c379a0000000000000000000000000000000000000000000000000000000008152600401610abd906125dc565b60405180910390fd5b8060056000610ad3610fb8565b73ffffffffffffffffffffffffffffffffffffffff1673ffffffffffffffffffffffffffffffffffffffff16815260200190815260200160002060008473ffffffffffffffffffffffffffffffffffffffff1673ffffffffffffffffffffffffffffffffffffffff16815260200190815260200160002060006101000a81548160ff0219169083151502179055508173ffffffffffffffffffffffffffffffffffffffff16610b80610fb8565b73ffffffffffffffffffffffffffffffffffffffff167f17307eab39ab6107e8899845ad3d59bd9653f200f220920489ca2b5937696c3183604051610bc5919061253f565b60405180910390a35050565b610be2610bdc610fb8565b83611097565b610c21576040517f08c379a0000000000000000000000000000000000000000000000000000000008152600401610c189061271c565b60405180910390fd5b610c2d848484846113dd565b50505050565b6060610c3e82610f4c565b610c7d576040517f08c379a0000000000000000000000000000000000000000000000000000000008152600401610c74906126dc565b60405180910390fd5b6000610c87611439565b90506000815111610ca75760405180602001604052806000815250610cd2565b80610cb184611450565b604051602001610cc2929190612435565b6040516020818303038152906040525b915050919050565b60606000600760008481526020019081526020016000206000018054610cff90612aa8565b80601f0160208091040260200160405190810160405280929190818152602001828054610d2b90612aa8565b8015610d785780601f10610d4d57610100808354040283529160200191610d78565b820191906000526020600020905b815481529060010190602001808311610d5b57829003601f168201915b505050505090506000600760008581526020019081526020016000206001018054610da290612aa8565b80601f0160208091040260200160405190810160405280929190818152602001828054610dce90612aa8565b8015610e1b5780601f10610df057610100808354040283529160200191610e1b565b820191906000526020600020905b815481529060010190602001808311610dfe57829003601f168201915b50505050509050600080610e2d610797565b915091506000610e3f838387876115b1565b90508095505050505050919050565b6000600560008473ffffffffffffffffffffffffffffffffffffffff1673ffffffffffffffffffffffffffffffffffffffff16815260200190815260200160002060008373ffffffffffffffffffffffffffffffffffffffff1673ffffffffffffffffffffffffffffffffffffffff16815260200190815260200160002060009054906101000a900460ff16905092915050565b60007f01ffc9a7000000000000000000000000000000000000000000000000000000007bffffffffffffffffffffffffffffffffffffffffffffffffffffffff1916827bffffffffffffffffffffffffffffffffffffffffffffffffffffffff1916149050919050565b60008073ffffffffffffffffffffffffffffffffffffffff166002600084815260200190815260200160002060009054906101000a900473ffffffffffffffffffffffffffffffffffffffff1673ffffffffffffffffffffffffffffffffffffffff1614159050919050565b600033905090565b816004600083815260200190815260200160002060006101000a81548173ffffffffffffffffffffffffffffffffffffffff021916908373ffffffffffffffffffffffffffffffffffffffff160217905550808273ffffffffffffffffffffffffffffffffffffffff1661103383610854565b73ffffffffffffffffffffffffffffffffffffffff167f8c5be1e5ebec7d5bd14f71427d1e84f3dd0314c0f7b2291e5b200ac8c7c3b92560405160405180910390a45050565b6110938282604051806020016040528060008152506116ce565b5050565b60006110a282610f4c565b6110e1576040517f08c379a00000000000000000000000000000000000000000000000000000000081526004016110d8906125fc565b60405180910390fd5b60006110ec83610854565b90508073ffffffffffffffffffffffffffffffffffffffff168473ffffffffffffffffffffffffffffffffffffffff16148061115b57508373ffffffffffffffffffffffffffffffffffffffff16611143846104cc565b73ffffffffffffffffffffffffffffffffffffffff16145b8061116c575061116b8185610e4e565b5b91505092915050565b8273ffffffffffffffffffffffffffffffffffffffff1661119582610854565b73ffffffffffffffffffffffffffffffffffffffff16146111eb576040517f08c379a00000000000000000000000000000000000000000000000000000000081526004016111e2906126bc565b60405180910390fd5b600073ffffffffffffffffffffffffffffffffffffffff168273ffffffffffffffffffffffffffffffffffffffff16141561125b576040517f08c379a0000000000000000000000000000000000000000000000000000000008152600401611252906125bc565b60405180910390fd5b611266838383611729565b611271600082610fc0565b6001600360008573ffffffffffffffffffffffffffffffffffffffff1673ffffffffffffffffffffffffffffffffffffffff16815260200190815260200160002060008282546112c191906129a7565b925050819055506001600360008473ffffffffffffffffffffffffffffffffffffffff1673ffffffffffffffffffffffffffffffffffffffff1681526020019081526020016000206000828254611318919061288f565b92505081905550816002600083815260200190815260200160002060006101000a81548173ffffffffffffffffffffffffffffffffffffffff021916908373ffffffffffffffffffffffffffffffffffffffff160217905550808273ffffffffffffffffffffffffffffffffffffffff168473ffffffffffffffffffffffffffffffffffffffff167fddf252ad1be2c89b69c2b068fc378daa952ba7f163c4a11628f55a4df523b3ef60405160405180910390a4505050565b60006301000006905090565b6113e8848484611175565b6113f48484848461172e565b611433576040517f08c379a000000000000000000000000000000000000000000000000000000000815260040161142a9061257c565b60405180910390fd5b50505050565b606060405180602001604052806000815250905090565b60606000821415611498576040518060400160405280600181526020017f300000000000000000000000000000000000000000000000000000000000000081525090506115ac565b600082905060005b600082146114ca5780806114b390612b0b565b915050600a826114c3919061291c565b91506114a0565b60008167ffffffffffffffff8111156114e6576114e5612c41565b5b6040519080825280601f01601f1916602001820160405280156115185781602001600182028036833780820191505090505b5090505b600085146115a55760018261153191906129a7565b9150600a856115409190612b54565b603061154c919061288f565b60f81b81838151811061156257611561612c12565b5b60200101907effffffffffffffffffffffffffffffffffffffffffffffffffffffffffffff1916908160001a905350600a8561159e919061291c565b945061151c565b8093505050505b919050565b60606000604051806102c0016040528061029381526020016130e96102939139905060006115e66115e1886118c5565b6118f3565b905060006040518060400160405280600f81526020017f2c20302c203029222066696c6c3d220000000000000000000000000000000000815250905060006040518060600160405280603f815260200161337c603f91399050600061165261164d8a611a7c565b6118f3565b905060006040518060400160405280601181526020017f222f3e3c2f673e3c2f673e3c2f7376673e00000000000000000000000000000081525090508585858b8686898e886040516020016116af99989796959493929190612459565b6040516020818303038152906040529650505050505050949350505050565b6116d88383611aaa565b6116e5600084848461172e565b611724576040517f08c379a000000000000000000000000000000000000000000000000000000000815260040161171b9061257c565b60405180910390fd5b505050565b505050565b600061174f8473ffffffffffffffffffffffffffffffffffffffff16611c78565b156118b8578373ffffffffffffffffffffffffffffffffffffffff1663150b7a02611778610fb8565b8786866040518563ffffffff1660e01b815260040161179a94939291906124f3565b602060405180830381600087803b1580156117b457600080fd5b505af19250505080156117e557506040513d601f19601f820116820180604052508101906117e2919061207c565b60015b611868573d8060008114611815576040519150601f19603f3d011682016040523d82523d6000602084013e61181a565b606091505b50600081511415611860576040517f08c379a00000000000000000000000000000000000000000000000000000000081526004016118579061257c565b60405180910390fd5b805181602001fd5b63150b7a0260e01b7bffffffffffffffffffffffffffffffffffffffffffffffffffffffff1916817bffffffffffffffffffffffffffffffffffffffffffffffffffffffff1916149150506118bd565b600190505b949350505050565b6000605a603c6006846118d89190612b54565b6118e2919061294d565b6118ec919061288f565b9050919050565b6060600082141561193b576040518060400160405280600181526020017f30000000000000000000000000000000000000000000000000000000000000008152509050611a77565b600082905060005b6000821461196d57808061195690612b0b565b915050600a82611966919061291c565b9150611943565b60008167ffffffffffffffff81111561198957611988612c41565b5b6040519080825280601f01601f1916602001820160405280156119bb5781602001600182028036833780820191505090505b50905060008290505b60008614611a6f576001816119d991906129a7565b90506000600a80886119eb919061291c565b6119f5919061294d565b87611a0091906129a7565b6030611a0c91906128e5565b905060008160f81b905080848481518110611a2a57611a29612c12565b5b60200101907effffffffffffffffffffffffffffffffffffffffffffffffffffffffffffff1916908160001a905350600a88611a66919061291c565b975050506119c4565b819450505050505b919050565b6000605a6012601484611a8f9190612b54565b611a99919061294d565b611aa3919061288f565b9050919050565b600073ffffffffffffffffffffffffffffffffffffffff168273ffffffffffffffffffffffffffffffffffffffff161415611b1a576040517f08c379a0000000000000000000000000000000000000000000000000000000008152600401611b119061267c565b60405180910390fd5b611b2381610f4c565b15611b63576040517f08c379a0000000000000000000000000000000000000000000000000000000008152600401611b5a9061259c565b60405180910390fd5b611b6f60008383611729565b6001600360008473ffffffffffffffffffffffffffffffffffffffff1673ffffffffffffffffffffffffffffffffffffffff1681526020019081526020016000206000828254611bbf919061288f565b92505081905550816002600083815260200190815260200160002060006101000a81548173ffffffffffffffffffffffffffffffffffffffff021916908373ffffffffffffffffffffffffffffffffffffffff160217905550808273ffffffffffffffffffffffffffffffffffffffff16600073ffffffffffffffffffffffffffffffffffffffff167fddf252ad1be2c89b69c2b068fc378daa952ba7f163c4a11628f55a4df523b3ef60405160405180910390a45050565b600080823b905060008111915050919050565b828054611c9790612aa8565b90600052602060002090601f016020900481019282611cb95760008555611d00565b82601f10611cd257805160ff1916838001178555611d00565b82800160010185558215611d00579182015b82811115611cff578251825591602001919060010190611ce4565b5b509050611d0d9190611d11565b5090565b5b80821115611d2a576000816000905550600101611d12565b5090565b6000611d41611d3c846127ea565b6127c5565b905082815260208101848484011115611d5d57611d5c612c75565b5b611d68848285612a66565b509392505050565b6000611d83611d7e8461281b565b6127c5565b905082815260208101848484011115611d9f57611d9e612c75565b5b611daa848285612a66565b509392505050565b600081359050611dc181613075565b92915050565b600081359050611dd68161308c565b92915050565b600081359050611deb816130a3565b92915050565b600081519050611e00816130a3565b92915050565b600082601f830112611e1b57611e1a612c70565b5b8135611e2b848260208601611d2e565b91505092915050565b600081519050611e43816130ba565b92915050565b600082601f830112611e5e57611e5d612c70565b5b8135611e6e848260208601611d70565b91505092915050565b600081359050611e86816130d1565b92915050565b600060208284031215611ea257611ea1612c7f565b5b6000611eb084828501611db2565b91505092915050565b60008060408385031215611ed057611ecf612c7f565b5b6000611ede85828601611db2565b9250506020611eef85828601611db2565b9150509250929050565b600080600060608486031215611f1257611f11612c7f565b5b6000611f2086828701611db2565b9350506020611f3186828701611db2565b9250506040611f4286828701611e77565b9150509250925092565b60008060008060808587031215611f6657611f65612c7f565b5b6000611f7487828801611db2565b9450506020611f8587828801611db2565b9350506040611f9687828801611e77565b925050606085013567ffffffffffffffff811115611fb757611fb6612c7a565b5b611fc387828801611e06565b91505092959194509250565b60008060408385031215611fe657611fe5612c7f565b5b6000611ff485828601611db2565b925050602061200585828601611dc7565b9150509250929050565b6000806040838503121561202657612025612c7f565b5b600061203485828601611db2565b925050602061204585828601611e77565b9150509250929050565b60006020828403121561206557612064612c7f565b5b600061207384828501611ddc565b91505092915050565b60006020828403121561209257612091612c7f565b5b60006120a084828501611df1565b91505092915050565b6000602082840312156120bf576120be612c7f565b5b60006120cd84828501611e34565b91505092915050565b600080604083850312156120ed576120ec612c7f565b5b600083013567ffffffffffffffff81111561210b5761210a612c7a565b5b61211785828601611e49565b925050602083013567ffffffffffffffff81111561213857612137612c7a565b5b61214485828601611e49565b9150509250929050565b60006020828403121561216457612163612c7f565b5b600061217284828501611e77565b91505092915050565b612184816129db565b82525050565b612193816129ed565b82525050565b60006121a48261284c565b6121ae8185612862565b93506121be818560208601612a75565b6121c781612c84565b840191505092915050565b60006121dd82612857565b6121e78185612873565b93506121f7818560208601612a75565b61220081612c84565b840191505092915050565b600061221682612857565b6122208185612884565b9350612230818560208601612a75565b80840191505092915050565b6000612249603283612873565b915061225482612c95565b604082019050919050565b600061226c601c83612873565b915061227782612ce4565b602082019050919050565b600061228f602483612873565b915061229a82612d0d565b604082019050919050565b60006122b2601983612873565b91506122bd82612d5c565b602082019050919050565b60006122d5602c83612873565b91506122e082612d85565b604082019050919050565b60006122f8603883612873565b915061230382612dd4565b604082019050919050565b600061231b602a83612873565b915061232682612e23565b604082019050919050565b600061233e602983612873565b915061234982612e72565b604082019050919050565b6000612361602083612873565b915061236c82612ec1565b602082019050919050565b6000612384602c83612873565b915061238f82612eea565b604082019050919050565b60006123a7602983612873565b91506123b282612f39565b604082019050919050565b60006123ca602f83612873565b91506123d582612f88565b604082019050919050565b60006123ed602183612873565b91506123f882612fd7565b604082019050919050565b6000612410603183612873565b915061241b82613026565b604082019050919050565b61242f81612a4f565b82525050565b6000612441828561220b565b915061244d828461220b565b91508190509392505050565b6000612465828c61220b565b9150612471828b61220b565b915061247d828a61220b565b9150612489828961220b565b9150612495828861220b565b91506124a1828761220b565b91506124ad828661220b565b91506124b9828561220b565b91506124c5828461220b565b91508190509a9950505050505050505050565b60006020820190506124ed600083018461217b565b92915050565b6000608082019050612508600083018761217b565b612515602083018661217b565b6125226040830185612426565b81810360608301526125348184612199565b905095945050505050565b6000602082019050612554600083018461218a565b92915050565b6000602082019050818103600083015261257481846121d2565b905092915050565b600060208201905081810360008301526125958161223c565b9050919050565b600060208201905081810360008301526125b58161225f565b9050919050565b600060208201905081810360008301526125d581612282565b9050919050565b600060208201905081810360008301526125f5816122a5565b9050919050565b60006020820190508181036000830152612615816122c8565b9050919050565b60006020820190508181036000830152612635816122eb565b9050919050565b600060208201905081810360008301526126558161230e565b9050919050565b6000602082019050818103600083015261267581612331565b9050919050565b6000602082019050818103600083015261269581612354565b9050919050565b600060208201905081810360008301526126b581612377565b9050919050565b600060208201905081810360008301526126d58161239a565b9050919050565b600060208201905081810360008301526126f5816123bd565b9050919050565b60006020820190508181036000830152612715816123e0565b9050919050565b6000602082019050818103600083015261273581612403565b9050919050565b60006020820190506127516000830184612426565b92915050565b600060608201905061276c6000830186612426565b818103602083015261277e81856121d2565b9050818103604083015261279281846121d2565b9050949350505050565b60006040820190506127b16000830185612426565b6127be6020830184612426565b9392505050565b60006127cf6127e0565b90506127db8282612ada565b919050565b6000604051905090565b600067ffffffffffffffff82111561280557612804612c41565b5b61280e82612c84565b9050602081019050919050565b600067ffffffffffffffff82111561283657612835612c41565b5b61283f82612c84565b9050602081019050919050565b600081519050919050565b600081519050919050565b600082825260208201905092915050565b600082825260208201905092915050565b600081905092915050565b600061289a82612a4f565b91506128a583612a4f565b9250827fffffffffffffffffffffffffffffffffffffffffffffffffffffffffffffffff038211156128da576128d9612b85565b5b828201905092915050565b60006128f082612a59565b91506128fb83612a59565b92508260ff0382111561291157612910612b85565b5b828201905092915050565b600061292782612a4f565b915061293283612a4f565b92508261294257612941612bb4565b5b828204905092915050565b600061295882612a4f565b915061296383612a4f565b9250817fffffffffffffffffffffffffffffffffffffffffffffffffffffffffffffffff048311821515161561299c5761299b612b85565b5b828202905092915050565b60006129b282612a4f565b91506129bd83612a4f565b9250828210156129d0576129cf612b85565b5b828203905092915050565b60006129e682612a2f565b9050919050565b60008115159050919050565b60007fffffffff0000000000000000000000000000000000000000000000000000000082169050919050565b6000819050919050565b600073ffffffffffffffffffffffffffffffffffffffff82169050919050565b6000819050919050565b600060ff82169050919050565b82818337600083830152505050565b60005b83811015612a93578082015181840152602081019050612a78565b83811115612aa2576000848401525b50505050565b60006002820490506001821680612ac057607f821691505b60208210811415612ad457612ad3612be3565b5b50919050565b612ae382612c84565b810181811067ffffffffffffffff82111715612b0257612b01612c41565b5b80604052505050565b6000612b1682612a4f565b91507fffffffffffffffffffffffffffffffffffffffffffffffffffffffffffffffff821415612b4957612b48612b85565b5b600182019050919050565b6000612b5f82612a4f565b9150612b6a83612a4f565b925082612b7a57612b79612bb4565b5b828206905092915050565b7f4e487b7100000000000000000000000000000000000000000000000000000000600052601160045260246000fd5b7f4e487b7100000000000000000000000000000000000000000000000000000000600052601260045260246000fd5b7f4e487b7100000000000000000000000000000000000000000000000000000000600052602260045260246000fd5b7f4e487b7100000000000000000000000000000000000000000000000000000000600052603260045260246000fd5b7f4e487b7100000000000000000000000000000000000000000000000000000000600052604160045260246000fd5b600080fd5b600080fd5b600080fd5b600080fd5b6000601f19601f8301169050919050565b7f4552433732313a207472616e7366657220746f206e6f6e20455243373231526560008201527f63656976657220696d706c656d656e7465720000000000000000000000000000602082015250565b7f4552433732313a20746f6b656e20616c7265616479206d696e74656400000000600082015250565b7f4552433732313a207472616e7366657220746f20746865207a65726f2061646460008201527f7265737300000000000000000000000000000000000000000000000000000000602082015250565b7f4552433732313a20617070726f766520746f2063616c6c657200000000000000600082015250565b7f4552433732313a206f70657261746f7220717565727920666f72206e6f6e657860008201527f697374656e7420746f6b656e0000000000000000000000000000000000000000602082015250565b7f4552433732313a20617070726f76652063616c6c6572206973206e6f74206f7760008201527f6e6572206e6f7220617070726f76656420666f7220616c6c0000000000000000602082015250565b7f4552433732313a2062616c616e636520717565727920666f7220746865207a6560008201527f726f206164647265737300000000000000000000000000000000000000000000602082015250565b7f4552433732313a206f776e657220717565727920666f72206e6f6e657869737460008201527f656e7420746f6b656e0000000000000000000000000000000000000000000000602082015250565b7f4552433732313a206d696e7420746f20746865207a65726f2061646472657373600082015250565b7f4552433732313a20617070726f76656420717565727920666f72206e6f6e657860008201527f697374656e7420746f6b656e0000000000000000000000000000000000000000602082015250565b7f4552433732313a207472616e73666572206f6620746f6b656e2074686174206960008201527f73206e6f74206f776e0000000000000000000000000000000000000000000000602082015250565b7f4552433732314d657461646174613a2055524920717565727920666f72206e6f60008201527f6e6578697374656e7420746f6b656e0000000000000000000000000000000000602082015250565b7f4552433732313a20617070726f76616c20746f2063757272656e74206f776e6560008201527f7200000000000000000000000000000000000000000000000000000000000000602082015250565b7f4552433732313a207472616e736665722063616c6c6572206973206e6f74206f60008201527f776e6572206e6f7220617070726f766564000000000000000000000000000000602082015250565b61307e816129db565b811461308957600080fd5b50565b613095816129ed565b81146130a057600080fd5b50565b6130ac816129f9565b81146130b757600080fd5b50565b6130c381612a25565b81146130ce57600080fd5b50565b6130da81612a4f565b81146130e557600080fd5b5056fe3c7376672077696474683d2236343022206865696768743d2236343022207374726f6b653d222330303022207374726f6b652d77696474683d223130222066696c6c3d2223666666222076657273696f6e3d22312e312220786d6c6e733d22687474703a2f2f7777772e77332e6f72672f323030302f737667223e3c67207472616e73666f726d3d227472616e736c617465283332302c33323029223e3c706f6c79676f6e20706f696e74733d2230202d3133342c313230202d36302c3132302036302c30203133342c2d3132302036302c2d313230202d3630222f3e3c6c696e652078313d2230222079313d222d313334222078323d2230222079323d22313334222f3e3c6c696e652078313d22313230222079313d222d3630222078323d222d313230222079323d223630222f3e3c6c696e652078313d22313230222079313d223630222078323d222d313230222079323d222d3630222f3e3c636972636c652063783d2230222063793d222d3133342220723d223235222f3e3c636972636c652063783d22313230222063793d222d36302220723d223235222f3e3c636972636c652063783d22313230222063793d2236302220723d223235222f3e3c636972636c652063783d2230222063793d223133342220723d223235222f3e3c636972636c65202063783d222d313230222063793d2236302220723d223235222f3e3c636972636c652063783d222d313230222063793d222d36302220723d223235222f3e3c636972636c652063783d2230222063793d22302220723d223235222f3e3c67207374726f6b652d77696474683d2236223e3c656c6c697073652063783d222d323239222063793d2230222072783d223630222072793d22333222207472616e73666f726d3d22726f7461746528222f3e3c656c6c697073652063783d222d323039222063793d2230222072783d223430222072793d22323122207472616e73666f726d3d22726f7461746528a264697066735822122010982e34ef2aa7eb61d756d8042222929b9e5bf1b5d19191ad7b09fd786356e464736f6c63430008070033",
  "immutableReferences": {},
  "source": "// SPDX-License-Identifier: GPL-3.0\npragma solidity >=0.7.0 <0.9.0;\nimport { IBlockClockSvgNft } from './IBlockClockSvgNft.sol';\nimport { Bridge } from './Bridge.sol';\nimport \"@openzeppelin/contracts/token/ERC721/ERC721.sol\";\n\ncontract BlockClockSvgNft is\n    IBlockClockSvgNft,\n    ERC721\n{\n    struct TokenData {\n        string bitcoinLeafColour;\n        string rskLeafColour;\n    }\n\n    uint256 tokenCount;\n    // Mapping from token ID to token data\n    mapping(uint256 => TokenData) private tokens;\n\n    event TokenInfo(uint256 _tokenId, string _bitcoinLeafColour, string _rskLeafColour);\n\n    constructor()\n        ERC721(\"TestBlockClockNft\", \"TestBCLK\")\n    {\n        tokenCount = 0;\n    }\n\n    function create(\n        string memory bitcoinLeafColour,\n        string memory rskLeafColour\n    )\n        public\n    {\n        uint256 tokenId = ++tokenCount;\n        TokenData memory newToken = TokenData(\n            bitcoinLeafColour,\n            rskLeafColour\n        );\n        tokens[tokenId] = newToken;\n        _safeMint(msg.sender, tokenId);\n        emit TokenInfo(tokenId, bitcoinLeafColour, rskLeafColour);\n    }\n\n    function renderSvgLogo(uint256 _tokenId) public view override returns(string memory) {\n        string memory bitcoinLeafColour = tokens[_tokenId].bitcoinLeafColour;\n        string memory rskLeafColour = tokens[_tokenId].rskLeafColour;\n        (uint256 btcBlockNum, uint256 rskBlockNum) = getRskBtcBlockNumbers();\n        string memory svgLogo = getRenderedSvgLogo(btcBlockNum, rskBlockNum, bitcoinLeafColour, rskLeafColour);\n        return svgLogo;\n    }\n\n    function getRskBtcBlockNumbers() public view override returns(uint256, uint256) {\n        uint256 rskBlockNumber = block.number;\n        uint256 bestChainHeight = uint256(getBridge().getBtcBlockchainBestChainHeight());\n        return (bestChainHeight, rskBlockNumber);\n    }\n\n    function getRenderedSvgLogo(\n      uint256 _btcBlockNum,\n      uint256 _rskBlockNum,\n      string memory _bitcoinLeafColour,\n      string memory _rskLeafColour\n    ) private pure returns(string memory) {\n        string memory header = '<svg width=\"640\" height=\"640\" stroke=\"#000\" stroke-width=\"10\" fill=\"#fff\" version=\"1.1\" xmlns=\"http://www.w3.org/2000/svg\"><g transform=\"translate(320,320)\"><polygon points=\"0 -134,120 -60,120 60,0 134,-120 60,-120 -60\"/><line x1=\"0\" y1=\"-134\" x2=\"0\" y2=\"134\"/><line x1=\"120\" y1=\"-60\" x2=\"-120\" y2=\"60\"/><line x1=\"120\" y1=\"60\" x2=\"-120\" y2=\"-60\"/><circle cx=\"0\" cy=\"-134\" r=\"25\"/><circle cx=\"120\" cy=\"-60\" r=\"25\"/><circle cx=\"120\" cy=\"60\" r=\"25\"/><circle cx=\"0\" cy=\"134\" r=\"25\"/><circle  cx=\"-120\" cy=\"60\" r=\"25\"/><circle cx=\"-120\" cy=\"-60\" r=\"25\"/><circle cx=\"0\" cy=\"0\" r=\"25\"/><g stroke-width=\"6\"><ellipse cx=\"-229\" cy=\"0\" rx=\"60\" ry=\"32\" transform=\"rotate(';\n        string memory btcBlockNum = uint2str(getHourHandAngle(_btcBlockNum));\n        string memory fill = ', 0, 0)\" fill=\"';\n        string memory ellipse = '\"/><ellipse cx=\"-209\" cy=\"0\" rx=\"40\" ry=\"21\" transform=\"rotate(';\n        string memory rskBlockNum = uint2str(getMinuteHandAngle(_rskBlockNum));\n        string memory footer = '\"/></g></g></svg>';\n        return string(abi.encodePacked(header, btcBlockNum, fill, _bitcoinLeafColour, ellipse, rskBlockNum, fill, _rskLeafColour, footer));\n    }\n\n    function getBridge() private pure returns (Bridge) {\n        return Bridge(address(0x01000006));\n    }\n\n    // https://stackoverflow.com/questions/47129173/how-to-convert-uint-to-string-in-solidity\n    function uint2str(uint _i) private pure returns (string memory _uintAsString) {\n        if (_i == 0) {\n            return \"0\";\n        }\n        uint j = _i;\n        uint len;\n        while (j != 0) {\n            len++;\n            j /= 10;\n        }\n        bytes memory bstr = new bytes(len);\n        uint k = len;\n        while (_i != 0) {\n            k = k-1;\n            uint8 temp = (48 + uint8(_i - _i / 10 * 10));\n            bytes1 b1 = bytes1(temp);\n            bstr[k] = b1;\n            _i /= 10;\n        }\n        return string(bstr);\n    }\n\n\n    function getHourHandAngle(uint256 _value) private pure returns(uint256) {\n        return (_value % 6) * 60 + 90;\n    }\n\n    function getMinuteHandAngle(uint256 _value) private pure returns(uint256) {\n        return (_value % 20) * 18 + 90;\n    }\n}\n",
  "sourcePath": "/Users/shenshin/Projects/IOV/block-clock-svg-nft/contracts/BlockClockSvgNft.sol",
  "compiler": {
    "name": "solc",
    "version": "0.8.7+commit.e28d00a7.Emscripten.clang"
  },
  "schemaVersion": "3.4.3",
  "updatedAt": "2021-09-15T23:00:28.099Z",
  "networkType": "ethereum",
  "devdoc": {
    "kind": "dev",
    "methods": {
      "approve(address,uint256)": {
        "details": "See {IERC721-approve}."
      },
      "balanceOf(address)": {
        "details": "See {IERC721-balanceOf}."
      },
      "getApproved(uint256)": {
        "details": "See {IERC721-getApproved}."
      },
      "isApprovedForAll(address,address)": {
        "details": "See {IERC721-isApprovedForAll}."
      },
      "name()": {
        "details": "See {IERC721Metadata-name}."
      },
      "ownerOf(uint256)": {
        "details": "See {IERC721-ownerOf}."
      },
      "safeTransferFrom(address,address,uint256)": {
        "details": "See {IERC721-safeTransferFrom}."
      },
      "safeTransferFrom(address,address,uint256,bytes)": {
        "details": "See {IERC721-safeTransferFrom}."
      },
      "setApprovalForAll(address,bool)": {
        "details": "See {IERC721-setApprovalForAll}."
      },
      "supportsInterface(bytes4)": {
        "details": "See {IERC165-supportsInterface}."
      },
      "symbol()": {
        "details": "See {IERC721Metadata-symbol}."
      },
      "tokenURI(uint256)": {
        "details": "See {IERC721Metadata-tokenURI}."
      },
      "transferFrom(address,address,uint256)": {
        "details": "See {IERC721-transferFrom}."
      }
    },
    "version": 1
  },
  "userdoc": {
    "kind": "user",
    "methods": {},
    "version": 1
  }
}